:100000005CC0000080C000007EC000007CC000001A
:100010007AC0000078C0000076C0000074C0000004
:1000200072C0000070C000006EC000006CC0000014
:100030006AC0000068C0000066C0000064C0000024
:10004000C7C5000060C0000066C3000096C3000082
:100050005AC0000058C0000056C0000054C0000044
:1000600052C0000050C00000000000080002010063
:100070000003040700000000000000000102040863
:100080001020408001020408102001020408102002
:10009000040404040404040402020202020203032E
:1000A0000303030300000000250028002B000000CC
:1000B0000000240027002A00E20311241FBECFEF16
:1000C000D8E0DEBFCDBF11E0A0E0B1E0EAEDF2E1A3
:1000D00002C005900D92A833B107D9F722E0A8E33A
:1000E000B1E001C01D92A631B207E1F710E0CAEB02
:1000F000D0E003C02297FE01CBD6C83BD107D1F791
:10010000B8D00C946B097CCFCF92DF92EF92FF9224
:100110001F93CF93DF93182FC0E0D4E0C12CD12CD4
:100120007601812FDDD5C80ED91EE11CF11C219767
:100130002097B9F7C701B601B1D720E030E040EA17
:100140005BE30E94040920E030E040E85AE30E94AB
:100150000409DF91CF911F91FF90EF90DF90CF9036
:100160000895CF92DF92EF92FF920F931F93CF9358
:10017000DF93CDB7DEB7FE013B96819191916F0180
:1001800000E010E0EB85FC85E00FF11F6081662345
:1001900009F43CC06532A1F58181882399F3863644
:1001A00089F08337F1F0843651F5760192E0E90E5B
:1001B000F11CF601608171814AE050E080E791E036
:1001C00028D419C07601F4E0EF0EF11CF60140814D
:1001D00051816281738126E030E080E791E0F7D4BD
:1001E0000AC07601F2E0EF0EF11CF6016081718128
:1001F00080E791E068D30E5F1F4F6701C3CF65E2D0
:1002000080E791E061D30F5F1F4FBCCF80E090E0AB
:10021000DF91CF911F910F91FF90EF90DF90CF90E2
:10022000089526E040E052EC61E070E080E791E064
:1002300012D260E08EE09AD560E08FE097D560E062
:1002400080E194D560E081E191D560E082E18ED5D6
:1002500060E083E18BD560E085E188D561E087E0EF
:1002600085D560E086E082D561E085E07FD581E0DC
:1002700034C5F8D4D6DF60E087E0B1D5C1E0D1E085
:100280008FE090E041DF9B01AC0160936C017093C3
:100290006D0180936E0190936F0160E070E080E2E9
:1002A00090E4FAD5609368017093690180936A01C4
:1002B00090936B018EE090E027DF9B01AC0160938F
:1002C000640170936501809366019093670160E01B
:1002D00070E080E290E4E0D560936001709361018A
:1002E000809362019093630180E190E00DDF609361
:1002F0005C0170935D0180935E0190935F0120E04B
:1003000030E040E250E4C8D520E030E048E453E477
:100310007BD7609358017093590180935A01909351
:100320005B0181E190E0F0DE609354017093550130
:10033000809356019093570120E030E040E250E472
:10034000ABD520E030E048E453E45ED76093500141
:1003500070935101809352019093530182E190E098
:10036000D3DE60934C0170934D0180934E019093C6
:100370004F0120E030E040E250E48ED520E030E054
:1003800048E453E441D76093480170934901809356
:100390004A0190934B0183E190E0B6DE6093440103
:1003A00070934501809346019093470120E030E02F
:1003B00040E250E471D520E030E048E453E424D733
:1003C00060934001709341018093420190934301F7
:1003D00085E190E099DE9B01462F532F682F792FFE
:1003E00040933C0150933D0160933E0170933F0167
:1003F000409338015093390160933A0170933B0167
:100400009F938F933F932F93809143018F9380917C
:1004100042018F93809141018F93809140018F938E
:1004200080914B018F9380914A018F938091490174
:100430008F93809148018F93809153018F93809186
:1004400052018F93809151018F93809150018F932E
:1004500080915B018F9380915A018F938091590114
:100460008F93809158018F93809163018F93809136
:1004700062018F93809161018F93809160018F93CE
:1004800080916B018F9380916A018F9380916901B4
:100490008F93809168018F93DF93CF9362DE8DB746
:1004A0009EB74E960FB6F8949EBF0FBE8DBFE8CE96
:1004B000FC01818D228D90E0805C9F4F821B910911
:1004C0008F7399270895FC01918D828D981731F0D3
:1004D000828DE80FF11D858D90E008958FEF9FEFDD
:1004E0000895FC01918D828D981761F0828DDF0156
:1004F000A80FB11D5D968C91928D9F5F9F73928F17
:1005000090E008958FEF9FEF0895FC01848DDF0147
:10051000A80FB11DA35ABF4F2C91848D90E0019676
:100520008F739927848FA689B7892C93A089B18965
:100530008C9180648C93938D848D981306C002886F
:10054000F389E02D80818F7D80830895CF93DF93A1
:10055000EC01888D8823C1F0EA89FB89808185FDC3
:1005600005C0A889B9898C9186FD0EC00FB607FC1D
:10057000F5CF808185FFF2CFA889B9898C9185FF5D
:10058000EDCFCE01C2DFE8CFDF91CF910895CF92BA
:10059000DF92FF920F931F93CF93DF931F92CDB7FC
:1005A000DEB76C0181E0D60158968C9358975B9624
:1005B0009C915B975C968C915C97981307C05096C2
:1005C000ED91FC915197808185FD2DC0F601038D41
:1005D00010E00F5F1F4F0F731127F02EF601848D6F
:1005E000F81210C00FB607FCF9CFD6015096ED9166
:1005F000FC915197808185FFF1CFC601698385DF2A
:100600006981ECCF838DE80FF11DE35AFF4F6083C2
:10061000D6015B960C935B975296ED91FC915397A4
:10062000808180620CC0D6015696ED91FC9157975F
:1006300060835096ED91FC91519780818064808316
:1006400081E090E00F90DF91CF911F910F91FF908B
:10065000DF90CF900895BF92CF92DF92EF92FF92FA
:10066000CF93DF93EC016A017B01B22EE889F9890F
:1006700082E08083411581EE58076105710599F08C
:1006800060E079E08DE390E0A7019601DDD3215091
:1006900031094109510956954795379527952115F7
:1006A00080E1380790F0E889F989108260E874E801
:1006B0008EE190E0A7019601C7D32150310941098D
:1006C00051095695479537952795EC85FD853083DB
:1006D000EE85FF852083188EEC89FD89B082EA893A
:1006E000FB89808180618083EA89FB8980818860C1
:1006F0008083EA89FB89808180688083EA89FB891D
:1007000080818F7D8083DF91CF91FF90EF90DF908C
:10071000CF90BF9008951F920F920FB60F921124A1
:100720002F938F939F93EF93FF93E0918001F0912C
:1007300081018081E0918601F091870182FD12C0E4
:100740009081809189018F5F8F7320918A01821738
:1007500051F0E0918901F0E0E059FE4F958F8093D0
:10076000890101C08081FF91EF919F918F912F911D
:100770000F900FBE0F901F9018951F920F920FB6FB
:100780000F9211242F933F934F935F936F937F9317
:100790008F939F93AF93BF93EF93FF9380E791E085
:1007A000B4DEFF91EF91BF91AF919F918F917F91B7
:1007B0006F915F914F913F912F910F900FBE0F90CE
:1007C0001F901895109273011092720188EE93E0B9
:1007D000A0E0B0E08093740190937501A09376013E
:1007E000B09377018BE191E0909371018093700158
:1007F00085EC90E090937D0180937C0184EC90E007
:1008000090937F0180937E0180EC90E09093810132
:100810008093800181EC90E090938301809382012A
:1008200082EC90E0909385018093840186EC90E0C7
:1008300090938701809386011092890110928A011A
:1008400010928B0110928C010895CF92DF92EF925B
:10085000FF920F931F93CF93DF937C016A01EB010B
:1008600000E010E00C151D0571F06991D701ED91C4
:10087000FC910190F081E02DC7010995892B19F0B9
:100880000F5F1F4FEFCFC801DF91CF911F910F91E5
:10089000FF90EF90DF90CF9008956115710581F082
:1008A000DB010D900020E9F7AD0141505109461BD5
:1008B000570BDC01ED91FC910280F381E02D09944E
:1008C00080E090E00895E9CFDC01ED91FC9101908A
:1008D000F081E02D09948F929F92AF92BF92CF92B8
:1008E000DF92EF92FF920F931F93CF93DF93CDB7D9
:1008F000DEB7A1970FB6F894DEBF0FBECDBF7C0167
:10090000C42EE52FCB01D22E19A221E02D1510F017
:100910002AE0D22E8E010F5D1F4F8D2C912CA12C21
:10092000B12C6C2D7E2FA50194018ED28C2DD29EE0
:1009300080191124015011098A3014F4805D01C01E
:10094000895CF8018083211531054105510521F0AD
:10095000C22EE32FCA01E5CFB801C7019EDFA196E1
:100960000FB6F894DEBF0FBECDBFDF91CF911F91C0
:100970000F91FF90EF90DF90CF90BF90AF909F903E
:100980008F900895CF92DF92EF92FF920F931F9373
:10099000CF93DF93EC016A017B012115310579F4D6
:1009A000E881F9810190F081E02D642FDF91CF91F2
:1009B0001F910F91FF90EF90DF90CF9009942A3014
:1009C0003105D9F477FF18C06DE27EDF8C01442732
:1009D0005527BA014C195D096E097F092AE0CE013D
:1009E0007ADF800F911FDF91CF911F910F91FF90C0
:1009F000EF90DF90CF9008952AE0B701A601CE01D5
:100A0000DF91CF911F910F91FF90EF90DF90CF90EA
:100A100062CF9A01AB01662757FD6095762FB2CF62
:100A20004F925F926F927F928F929F92AF92BF92FE
:100A3000CF92DF92EF92FF920F931F93CF93DF93AA
:100A4000EC016A017B01B22E9A01AB01C701B6012C
:100A50003ED4882319F06AE271E024C026013701F0
:100A6000E89477F82FEF3FEF4FE75FE7C301B2015C
:100A70002ED481110CC02FEF3FEF4FE75FE7C3018A
:100A8000B2016FD218161CF46EE271E00BC02FEFAA
:100A90003FEF4FE75FE4C701B601B2D31816A4F4E5
:100AA00062E371E0CE01DF91CF911F910F91FF9032
:100AB000EF90DF90CF90BF90AF909F908F907F90FE
:100AC0006F905F904F90E9CE2FEF3FEF4FE75FECD5
:100AD000C701B60146D287FDE3CF20E030E0A9018F
:100AE000C701B6013ED287FF09C06DE2CE01ECDE40
:100AF0008C01F7FAF094F7F8F09402C000E010E0EF
:100B0000A12C60E070E080E09FE3AB1439F020E0BE
:100B100030E040E251E429D2A394F7CF9B01AC012D
:100B2000C701B601BAD16B017C018CD22B013C010B
:100B3000B5D29B01AC01C701B601AED16B017C01FE
:100B40002AE0B301A201CE01C6DE080F191FBB20A7
:100B500031F066E371E0CE01A0DE080F191F7B2C97
:100B6000772019F120E030E040E251E4C701B601FE
:100B70004BD36B017C0161D24B01AA2497FCA0945A
:100B8000BA2C2AE030E0B501A401CE01FBDE080F4B
:100B9000191FC501B40184D29B01AC01C701B60184
:100BA0007BD16B017C017A94DBCFC801DF91CF91BF
:100BB0001F910F91FF90EF90DF90CF90BF90AF907B
:100BC0009F908F907F906F905F904F90089528CF67
:100BD0001F920F920FB60F9211242F933F938F9372
:100BE0009F93AF93BF9380910E0290910F02A091BB
:100BF0001002B091110230910D0223E0230F2D3726
:100C000020F40196A11DB11D05C026E8230F029610
:100C1000A11DB11D20930D0280930E0290930F022F
:100C2000A0931002B09311028091120290911302CE
:100C3000A0911402B09115020196A11DB11D8093DF
:100C4000120290931302A0931402B0931502BF9165
:100C5000AF919F918F913F912F910F900FBE0F9069
:100C60001F901895789484B5826084BD84B58160A6
:100C700084BD85B5826085BD85B5816085BDEEE6A4
:100C8000F0E0808181608083E1E8F0E01082808183
:100C900082608083808181608083E0E8F0E08081F1
:100CA00081608083E1EBF0E0808184608083E0EB11
:100CB000F0E0808181608083EAE7F0E080818460F9
:100CC0008083808182608083808181608083808155
:100CD000806880831092C100089580930001089578
:100CE0008E3008F08E5087702091000190E4299F8B
:100CF00090011124822B80937C0080917A00806483
:100D000080937A0080917A0086FDFCCF80917800F4
:100D10002091790090E0922B0895833081F028F49F
:100D2000813099F08230A1F008958730A9F08830A1
:100D3000B9F08430D1F4809180008F7D03C0809120
:100D400080008F7780938000089584B58F7702C0EC
:100D500084B58F7D84BD08958091B0008F7703C0E6
:100D60008091B0008F7D8093B0000895CF93DF9382
:100D700090E0FC01E458FF4F2491FC01E057FF4F45
:100D80008491882349F190E0880F991FFC01E25576
:100D9000FF4FA591B4918C559F4FFC01C591D49103
:100DA0009FB7611108C0F8948C91209582238C9391
:100DB000888182230AC0623051F4F8948C91322FDA
:100DC000309583238C938881822B888304C0F89488
:100DD0008C91822B8C939FBFDF91CF9108950F93BD
:100DE0001F93CF93DF931F92CDB7DEB7282F30E04C
:100DF000F901E859FF4F8491F901E458FF4F14912C
:100E0000F901E057FF4F04910023C1F0882319F046
:100E1000698383DF6981E02FF0E0EE0FFF1FEC555F
:100E2000FF4FA591B4919FB7F8948C91611103C0C5
:100E30001095812301C0812B8C939FBF0F90DF9170
:100E4000CF911F910F910895A1E21A2EAA1BBB1BEF
:100E5000FD010DC0AA1FBB1FEE1FFF1FA217B30786
:100E6000E407F50720F0A21BB30BE40BF50B661F9C
:100E7000771F881F991F1A9469F760957095809560
:100E800090959B01AC01BD01CF010895EE0FFF1FAE
:100E90000590F491E02D09945058BB27AA270ED055
:100EA00075C166D130F06BD120F031F49F3F11F461
:100EB0001EF45BC10EF4E095E7FB51C1E92F77D139
:100EC00080F3BA17620773078407950718F071F467
:100ED0009EF58FC10EF4E0950B2EBA2FA02D0B01BD
:100EE000B90190010C01CA01A0011124FF27591B6F
:100EF00099F0593F50F4503E68F11A16F040A22F75
:100F0000232F342F4427585FF3CF469537952795E5
:100F1000A795F0405395C9F77EF41F16BA0B620BE4
:100F2000730B840BBAF09150A1F0FF0FBB1F661F2B
:100F3000771F881FC2F70EC0BA0F621F731F841F6E
:100F400048F4879577956795B795F7959E3F08F094
:100F5000B3CF9395880F08F09927EE0F9795879553
:100F60000895D9D008F481E008950CD00FC107D1BD
:100F700040F0FED030F021F45F3F19F0F0C0511185
:100F800039C1F3C014D198F39923C9F35523B1F3B0
:100F9000951B550BBB27AA2762177307840738F0E8
:100FA0009F5F5F4F220F331F441FAA1FA9F333D047
:100FB0000E2E3AF0E0E830D091505040E695001CFB
:100FC000CAF729D0FE2F27D0660F771F881FBB1FB7
:100FD000261737074807AB07B0E809F0BB0B802D91
:100FE000BF01FF2793585F4F2AF09E3F510568F0DD
:100FF000B6C000C15F3FECF3983EDCF38695779571
:101000006795B795F7959F5FC9F7880F911D9695DE
:10101000879597F90895E1E0660F771F881FBB1F3A
:10102000621773078407BA0720F0621B730B840BE7
:10103000BA0BEE1F88F7E095089504D06894B111BB
:10104000D9C00895BCD088F09F5790F0B92F992748
:10105000B751A0F0D1F0660F771F881F991F1AF0C3
:10106000BA95C9F712C0B13081F0C3D0B1E008958C
:10107000C0C0672F782F8827B85F39F0B93FCCF30D
:10108000869577956795B395D9F73EF490958095B9
:10109000709561957F4F8F4F9F4F0895E89409C0D9
:1010A00097FB3EF490958095709561957F4F8F4F9B
:1010B0009F4F9923A9F0F92F96E9BB279395F695B1
:1010C000879577956795B795F111F8CFFAF4BB0F2F
:1010D00011F460FF1BC06F5F7F4F8F4F9F4F16C093
:1010E000882311F096E911C0772321F09EE8872F1D
:1010F000762F05C0662371F096E8862F70E060E0D9
:101100002AF09A95660F771F881FDAF7880F969551
:10111000879597F90895990F0008550FAA0BE0E8F5
:10112000FEEF16161706E807F907C0F012161306A9
:10113000E407F50798F0621B730B840B950B39F4E9
:101140000A2661F0232B242B252B21F408950A264F
:1011500009F4A140A6958FEF811D811D089597F98F
:101160009F6780E870E060E008959FEF80EC08954D
:1011700000240A9416161706180609060895002476
:101180000A9412161306140605060895092E0394F0
:10119000000C11F4882352F0BB0F40F4BF2B11F464
:1011A00060FF04C06F5F7F4F8F4F9F4F089557FDC3
:1011B0009058440F551F59F05F3F71F04795880FC5
:1011C00097FB991F61F09F3F79F08795089512165C
:1011D00013061406551FF2CF4695F1DF08C0161608
:1011E00017061806991FF1CF8695710561050894B9
:1011F0000895E894BB2766277727CB0197F90895D0
:101200008ADF08F48FEF08950BD0C0CFB1DF28F04C
:10121000B6DF18F0952309F0A2CFA7CF1124EACFAB
:10122000C6DFA0F3959FD1F3950F50E0551F629F45
:10123000F001729FBB27F00DB11D639FAA27F00D2F
:10124000B11DAA1F649F6627B00DA11D661F829F56
:101250002227B00DA11D621F739FB00DA11D621F3B
:10126000839FA00D611D221F749F3327A00D611D58
:10127000231F849F600D211D822F762F6A2F11243A
:101280009F5750408AF0E1F088234AF0EE0FFF1F8D
:10129000BB1F661F771F881F91505040A9F79E3FC4
:1012A000510570F05CCFA6CF5F3FECF3983EDCF3C6
:1012B000869577956795B795F795E7959F5FC1F701
:1012C000FE2B880F911D9695879597F9089523DF3A
:0A12D000880B990B0895F894FFCFE6
:1012DA000125662C25662C25662C25662C25662C70
:1012EA0025662C25660A0000000000C7022504585E
:1012FA000271026302A6020D0A006E616E00696E37
:08130A0066006F7666002E00FC
:00000001FF
